{
  "_format": "hh-sol-artifact-1",
  "contractName": "StakingDapp",
  "sourceName": "contracts/StakingDapp.sol",
  "abi": [
    {
      "inputs": [
        {
          "internalType": "address",
          "name": "_stakingToken",
          "type": "address"
        },
        {
          "internalType": "address",
          "name": "_rewardToken",
          "type": "address"
        }
      ],
      "stateMutability": "nonpayable",
      "type": "constructor"
    },
    {
      "inputs": [
        {
          "internalType": "address",
          "name": "owner",
          "type": "address"
        }
      ],
      "name": "OwnableInvalidOwner",
      "type": "error"
    },
    {
      "inputs": [
        {
          "internalType": "address",
          "name": "account",
          "type": "address"
        }
      ],
      "name": "OwnableUnauthorizedAccount",
      "type": "error"
    },
    {
      "inputs": [
        {
          "internalType": "address",
          "name": "token",
          "type": "address"
        }
      ],
      "name": "SafeERC20FailedOperation",
      "type": "error"
    },
    {
      "anonymous": false,
      "inputs": [
        {
          "indexed": true,
          "internalType": "address",
          "name": "previousOwner",
          "type": "address"
        },
        {
          "indexed": true,
          "internalType": "address",
          "name": "newOwner",
          "type": "address"
        }
      ],
      "name": "OwnershipTransferred",
      "type": "event"
    },
    {
      "anonymous": false,
      "inputs": [
        {
          "indexed": true,
          "internalType": "address",
          "name": "user",
          "type": "address"
        },
        {
          "indexed": false,
          "internalType": "uint256",
          "name": "amount",
          "type": "uint256"
        }
      ],
      "name": "RewardClaimed",
      "type": "event"
    },
    {
      "anonymous": false,
      "inputs": [
        {
          "indexed": true,
          "internalType": "address",
          "name": "user",
          "type": "address"
        },
        {
          "indexed": false,
          "internalType": "uint256",
          "name": "amount",
          "type": "uint256"
        }
      ],
      "name": "Staked",
      "type": "event"
    },
    {
      "anonymous": false,
      "inputs": [
        {
          "indexed": true,
          "internalType": "address",
          "name": "user",
          "type": "address"
        },
        {
          "indexed": false,
          "internalType": "uint256",
          "name": "amount",
          "type": "uint256"
        }
      ],
      "name": "Unstaked",
      "type": "event"
    },
    {
      "inputs": [],
      "name": "REWARD_AMOUNT",
      "outputs": [
        {
          "internalType": "uint256",
          "name": "",
          "type": "uint256"
        }
      ],
      "stateMutability": "view",
      "type": "function"
    },
    {
      "inputs": [],
      "name": "REWARD_INTERVAL",
      "outputs": [
        {
          "internalType": "uint256",
          "name": "",
          "type": "uint256"
        }
      ],
      "stateMutability": "view",
      "type": "function"
    },
    {
      "inputs": [],
      "name": "claimReward",
      "outputs": [],
      "stateMutability": "nonpayable",
      "type": "function"
    },
    {
      "inputs": [
        {
          "internalType": "address",
          "name": "user",
          "type": "address"
        }
      ],
      "name": "getRewardAmount",
      "outputs": [
        {
          "internalType": "uint256",
          "name": "",
          "type": "uint256"
        }
      ],
      "stateMutability": "view",
      "type": "function"
    },
    {
      "inputs": [
        {
          "internalType": "address",
          "name": "user",
          "type": "address"
        }
      ],
      "name": "getStakedAmount",
      "outputs": [
        {
          "internalType": "uint256",
          "name": "",
          "type": "uint256"
        }
      ],
      "stateMutability": "view",
      "type": "function"
    },
    {
      "inputs": [],
      "name": "owner",
      "outputs": [
        {
          "internalType": "address",
          "name": "",
          "type": "address"
        }
      ],
      "stateMutability": "view",
      "type": "function"
    },
    {
      "inputs": [],
      "name": "renounceOwnership",
      "outputs": [],
      "stateMutability": "nonpayable",
      "type": "function"
    },
    {
      "inputs": [
        {
          "internalType": "address",
          "name": "",
          "type": "address"
        }
      ],
      "name": "rewardBalance",
      "outputs": [
        {
          "internalType": "uint256",
          "name": "",
          "type": "uint256"
        }
      ],
      "stateMutability": "view",
      "type": "function"
    },
    {
      "inputs": [],
      "name": "rewardToken",
      "outputs": [
        {
          "internalType": "contract IRewardToken",
          "name": "",
          "type": "address"
        }
      ],
      "stateMutability": "view",
      "type": "function"
    },
    {
      "inputs": [
        {
          "internalType": "uint256",
          "name": "amount",
          "type": "uint256"
        }
      ],
      "name": "stake",
      "outputs": [],
      "stateMutability": "nonpayable",
      "type": "function"
    },
    {
      "inputs": [
        {
          "internalType": "address",
          "name": "",
          "type": "address"
        }
      ],
      "name": "stakes",
      "outputs": [
        {
          "internalType": "uint256",
          "name": "amount",
          "type": "uint256"
        },
        {
          "internalType": "uint256",
          "name": "lastRewardTime",
          "type": "uint256"
        }
      ],
      "stateMutability": "view",
      "type": "function"
    },
    {
      "inputs": [],
      "name": "stakingToken",
      "outputs": [
        {
          "internalType": "contract IERC20",
          "name": "",
          "type": "address"
        }
      ],
      "stateMutability": "view",
      "type": "function"
    },
    {
      "inputs": [
        {
          "internalType": "address",
          "name": "newOwner",
          "type": "address"
        }
      ],
      "name": "transferOwnership",
      "outputs": [],
      "stateMutability": "nonpayable",
      "type": "function"
    },
    {
      "inputs": [
        {
          "internalType": "uint256",
          "name": "amount",
          "type": "uint256"
        }
      ],
      "name": "unstake",
      "outputs": [],
      "stateMutability": "nonpayable",
      "type": "function"
    }
  ],
  "bytecode": "0x608060405234801561001057600080fd5b50604051610acd380380610acd83398101604081905261002f91610169565b338061005657604051631e4fbdf760e01b8152600060048201526024015b60405180910390fd5b61005f816100fd565b506001600160a01b0382161580159061008057506001600160a01b03811615155b6100cc5760405162461bcd60e51b815260206004820152601760248201527f496e76616c696420746f6b656e20616464726573736573000000000000000000604482015260640161004d565b600180546001600160a01b039384166001600160a01b0319918216179091556002805492909316911617905561019c565b600080546001600160a01b038381166001600160a01b0319831681178455604051919092169283917f8be0079c531659141344cd1fd0a4f28419497f9722a3daafe3b4186f6b6457e09190a35050565b80516001600160a01b038116811461016457600080fd5b919050565b6000806040838503121561017c57600080fd5b6101858361014d565b91506101936020840161014d565b90509250929050565b610922806101ab6000396000f3fe608060405234801561001057600080fd5b50600436106100ea5760003560e01c806372f702f31161008c578063b88a802f11610066578063b88a802f1461020e578063cf84944214610216578063f2fde38b1461021e578063f7c618c11461023157600080fd5b806372f702f3146101bf5780638da5cb5b146101ea578063a694fc3a146101fb57600080fd5b80634da6a556116100c85780634da6a556146101665780635dbdda691461018f57806367b40cf714610197578063715018a6146101b757600080fd5b806316934fc4146100ef5780632e17de781461013057806344a040f514610145575b600080fd5b6101166100fd36600461082f565b6003602052600090815260409020805460019091015482565b604080519283526020830191909152015b60405180910390f35b61014361013e366004610858565b610244565b005b61015861015336600461082f565b61035d565b604051908152602001610127565b61015861017436600461082f565b6001600160a01b031660009081526003602052604090205490565b610158600a81565b6101586101a536600461082f565b60046020526000908152604090205481565b610143610370565b6001546101d2906001600160a01b031681565b6040516001600160a01b039091168152602001610127565b6000546001600160a01b03166101d2565b610143610209366004610858565b610384565b6101436104ae565b610158600581565b61014361022c36600461082f565b6105d4565b6002546101d2906001600160a01b031681565b3360009081526003602052604090205481111561029f5760405162461bcd60e51b8152602060048201526014602482015273496e73756666696369656e742062616c616e636560601b60448201526064015b60405180910390fd5b60006102aa33610612565b336000908152600460205260408120805492935083929091906102ce908490610887565b909155505033600090815260036020526040812080548492906102f29084906108a0565b90915550503360008181526003602052604090204260019182015554610324916001600160a01b03909116908461069e565b60405182815233907f0f5bb82176feb1b5e747e28471aa92156a04d9f3ab9f45f28e2d704232b93f759060200160405180910390a25050565b60008061036983610612565b9392505050565b610378610702565b610382600061072f565b565b600081116103d45760405162461bcd60e51b815260206004820152601d60248201527f416d6f756e74206d7573742062652067726561746572207468616e20300000006044820152606401610296565b336000908152600360205260409020541561041f5760006103f433610612565b33600090815260046020526040812080549293508392909190610418908490610887565b9091555050505b600154610437906001600160a01b031633308461077f565b3360009081526003602052604081208054839290610456908490610887565b9091555050336000818152600360205260409081902042600190910155517f9e71bc8eea02a63969f509818f2dafb9254532904319f9dbda79b67bd34a5f3d906104a39084815260200190565b60405180910390a250565b3360008181526004602052604081205490916104c990610612565b6104d39190610887565b90506000811161051b5760405162461bcd60e51b81526020600482015260136024820152724e6f2072657761726420617661696c61626c6560681b6044820152606401610296565b3360008181526004602081815260408084208490556003909152918290204260019091015560025491516340c10f1960e01b815290810192909252602482018390526001600160a01b0316906340c10f1990604401600060405180830381600087803b15801561058a57600080fd5b505af115801561059e573d6000803e3d6000fd5b50506040518381523392507f106f923f993c2149d49b4255ff723acafa1f2d94393f561d3eda32ae348f724191506020016104a3565b6105dc610702565b6001600160a01b03811661060657604051631e4fbdf760e01b815260006004820152602401610296565b61060f8161072f565b50565b6001600160a01b038116600090815260036020908152604080832081518083019092528054808352600190910154928201929092529082036106575750600092915050565b6020810151429060009061066b90836108a0565b9050600061067a600a836108b3565b845190915061068a6005836108d5565b61069491906108d5565b9695505050505050565b6040516001600160a01b038381166024830152604482018390526106fd91859182169063a9059cbb906064015b604051602081830303815290604052915060e01b6020820180516001600160e01b0383818316178352505050506107be565b505050565b6000546001600160a01b031633146103825760405163118cdaa760e01b8152336004820152602401610296565b600080546001600160a01b038381166001600160a01b0319831681178455604051919092169283917f8be0079c531659141344cd1fd0a4f28419497f9722a3daafe3b4186f6b6457e09190a35050565b6040516001600160a01b0384811660248301528381166044830152606482018390526107b89186918216906323b872dd906084016106cb565b50505050565b600080602060008451602086016000885af1806107e1576040513d6000823e3d81fd5b50506000513d915081156107f9578060011415610806565b6001600160a01b0384163b155b156107b857604051635274afe760e01b81526001600160a01b0385166004820152602401610296565b60006020828403121561084157600080fd5b81356001600160a01b038116811461036957600080fd5b60006020828403121561086a57600080fd5b5035919050565b634e487b7160e01b600052601160045260246000fd5b8082018082111561089a5761089a610871565b92915050565b8181038181111561089a5761089a610871565b6000826108d057634e487b7160e01b600052601260045260246000fd5b500490565b808202811582820484141761089a5761089a61087156fea26469706673582212203d685deaa9468937e78319b6fb4c8464cbdb1a9b258ab7ec82a952627cb6508964736f6c63430008180033",
  "linkReferences": {},
  "deployedLinkReferences": {}
}